:060000000A128A1110280B
:10000800FE00030E83120313A9000A08AA007F0842
:10001800AB000A128A11922A0A128A11132883162F
:1000280003130A128A11FD230A128A11B4000A1254
:100038008A11FE230A128A11B5008313AC3084009A
:10004800B4300A128A15DF260A128A114930840050
:1000580064300A128A15DF260A128A11FD0183010B
:100068000A128A1137280A128A11CD270A128A1110
:100078000A128A151F270A128A110A128A150027DE
:100088000A128A110A128A15E7260A128A110A1216
:100098008A11DE230A128A110A128A1535270A12D2
:1000A8008A118312031307165C08031D5C285D2858
:1000B8006A280B30AD008030AE000A128A159F27DF
:1000C8000A128A1183120313DC01DC0A31305D063F
:1000D800031D6F287028FF280A128A15F3260A12B2
:1000E8008A11E33083120313C7004708BA005A087D
:1000F800BC005908BB00A0300A128A11F5240A1264
:100108008A11963083120313AD008030AE000A12B4
:100118008A159F270A128A11A03083120313AD0093
:100128000030AE000A128A159F270A128A110A1295
:100138008A15F3260A128A11E33083120313C700C3
:100148004708BA005808BC005708BB00A4300A1278
:100158008A11F5240A128A11573083120313AD004D
:100168008030AE000A128A159F270A128A11A4301D
:1001780083120313AD000030AE000A128A159F27C0
:100188000A128A110A128A15F3260A128A11E33012
:1001980083120313C7004708BA005608BC00550865
:1001A800BB00A8300A128A11F5240A128A11773086
:1001B80083120313AD008030AE000A128A159F2700
:1001C8000A128A11A83083120313AD000030AE0062
:1001D8000A128A159F270A128A110A128A15F3260B
:1001E8000A128A110A128A15F3260A128A11831230
:1001F8000313DC01DD0132305D06031D04290529E6
:1002080028290A128A11B1260A128A110A128A1595
:10021800F3260A128A11CD3083120313AD00803001
:10022800AE000A128A159F270A128A110A128A1525
:10023800F3260A128A110A128A15F3260A128A115B
:1002480083120313DC01DD0133305D06031D2D2904
:100258002E2956290A128A11B1260A128A110A125F
:100268008A11B1260A128A110A128A15F3260A126D
:100278008A11B53083120313AD008030AE000A1224
:100288008A159F270A128A110A128A15F3260A125A
:100298008A110A128A15F3260A128A118312031385
:1002A800DC01DD015E08031D5A295B2995299F128F
:1002B8001F129F111F11831603139F178312031315
:1002C8001E08CA00831603131E0883120313C900ED
:1002D8004A08C8004908C700480DC80CC70C480D93
:1002E800C80CC70C4708D1004808D2000C13831665
:1002F80003139F13831203131E08C700C80147087E
:10030800D9004808DA00DE01DE0A413083120313FF
:10031800C800ED30C700C70B8F29C80B8F29942957
:10032800862A5E03031D99299A29D6299F121F122E
:100338009F111F15831603139F17831203131E089B
:10034800CA00831603131E0883120313C9004A0840
:10035800C8004908C700480DC80CC70C480DC80C90
:10036800C70C4708CF004808D0000C1383160313A6
:100378009F13831203131E08C700C8014708D7003C
:100388004808D8000230C7004708DE004130831211
:100398000313C800ED30C700C70BD029C80BD029FC
:1003A800D529862A02305E06031DDB29DC29182A96
:1003B8009F121F129F151F11831603139F17831275
:1003C80003131E08CA00831603131E08831203139F
:1003D800C9004A08C8004908C700480DC80CC70C1E
:1003E800480DC80CC70C4708CD004808CE000C13B0
:1003F800831603139F13831203131E08C700C80133
:100408004708D5004808D6000330C7004708DE0073
:10041800413083120313C800ED30C700C70B122AFE
:10042800C80B122A172A862A03305E06031D1D2AC6
:100438001E2A562A1E08C700C8014708BB004808DC
:10044800BC000030BD00BE00FF30BF000030C0005F
:100458005A30C1000030C2007830C3000030C400F8
:100468000A128A11A5230A128A11831203133B0860
:1004780095009F121F169F111F11831603139F13B8
:10048800043083120313C7004708DE00413083128B
:100498000313C800ED30C700C70B502AC80B502AF9
:1004A800552A862A04305E06031D5B2A5C2A862AA2
:1004B8001E08C700C8014708BB004808BC00003038
:1004C800BD00BE00FF30BF000030C0005A30C10080
:1004D8000030C2007830C3000030C4000A128A110C
:1004E800A5230A128A11831203133B089B009F124B
:1004F8001F129F151F15831603139F1383120313CF
:10050800DE014A2A831203139F149F188C2A8D2A0E
:10051800892A0C1355280A128A1110280B1D952AAE
:10052800962A252BFD3081000130A6002608E30716
:100538000130A6002608E2070130A6002608E107D8
:100548000130A6002608E0070130A6002608DF07CC
:100558006308A600A70127085202031DB52A26082A
:1005680051020318B82AB92ABB2A0810BC2A081451
:100578006208A600A70127085002031DC52A2608FD
:100588004F020318C82AC92ACB2A8810CC2A8814F3
:100598006108A600A70127084E02031DD52A2608D0
:1005A8004D020318D82AD92ADB2A0811DC2A081593
:1005B8006008A600A70127084C02031DE52A2608A3
:1005C8004B020318E82AE92AEB2A8811EC2A881535
:1005D8005F08A600A7012708831603133102031D2D
:1005E800FB2A831203132608831603133002031809
:1005F800FE2AFF2A032B831203130812062B8312E9
:1006080003130816630A031D0A2B0B2B0C2BE3019B
:10061800620A031D102B112B122BE201610A031D24
:10062800162B172B182BE101600A031D1C2B1D2B01
:100638001E2BE0015F0A031D222B232B242BDF0135
:100648000B118C1E282B292B2E2B1A08A6002608E6
:10065800DD008C120B1C312B322B9A2B0B10060849
:100668008619372B382B832BD301D4017B2B071208
:100678008715033083120313A8008A30A70055306A
:10068800A600A60B452BA70B452BA80B452B8312C1
:1006980003138618502B512B562B0A128A15C7277D
:1006A8000A128A118312031306195B2B5C2B612B28
:1006B8000A128A150D270A128A1183120313861942
:1006C800662B672B7B2B871107160130D300003070
:1006D800D400033083120313A8008A30A7005530D2
:1006E800A600A60B752BA70B752BA80B752B8312D1
:1006F8000313530854040319822B832B3B2B06182E
:10070800862B872B9A2B0A128A1100270A128A1124
:10071800033083120313A8008A30A7005530A600BF
:10072800A60B942BA70B942BA80B942B83120313C3
:100738002B08FF002A088A00290E8300FE0E7E0E71
:100748000900831203133D083F02B2003E08031C50
:100758003E0A4002B3003D083B02AC003E08031CC1
:100768003E0A3C02AD0041084302AE004208031CA9
:10077800420A4402AF000A128A1578270A128A111F
:10078800831203132D08B5002C08B4000A128A112D
:10079800DF250A128A118312031341083207C500A4
:1007A80042080318420A3307C6004608BC00450839
:1007B800BB0008008316031307158714F93092004D
:1007C8003F308312031397051708F0390C38970048
:1007D8001D08F0390C389D001E3095001E309B0016
:1007E800CF3097051D129D1283160313071187102A
:0607F8000800FF3400348C
:10080000FF1B0A2C83137F1883170008840A03191F
:10081000FF0A080004308A000408840A82070034B2
:10082000013400340A34003464340034E8340334CE
:100830001034273431342E3420344C34653465344C
:100840007234203470346F34743465346E346334ED
:1008500069346F346D346534743472346F34733486
:10086000203472346734623420340D340A34323424
:100870002E34203450346134723470346134643432
:10088000653461347234203475346E34613420340C
:10089000763465347A340D340A3433342E342034CB
:1008A000503461347234703461346434653461348A
:1008B0007234203464346F347334203476346534C5
:1008C0006334653473340D340A340034563461347F
:1008D0006C346F3472342034643465346C342034B6
:1008E00070346F34743465346E34633469346F3407
:1008F0006D346534743472346F3420347634653436
:100900007234643465343A342034003456346134FB
:100910006C346F3472342034643465346C34203475
:1009200070346F34743465346E34633469346F34C6
:100930006D346534743472346F34203461347A34F5
:1009400075346C343A3420340034563461346C34A9
:100950006F3472342034643465346C342034703431
:100960006F34743465346E34633469346F346D3489
:100970006534743472346F34203472346F346A34B2
:100980006F343A34203400344834653420347034C1
:100990006134723470346134643465346134643485
:1009A0006F34203464346F347334203476346534D7
:1009B000633465347334003448346534203470341F
:1009C0006134723470346134643465346134643455
:1009D0006F34203475346E346134203476346534A9
:1009E0007A34003425346434003483120313C50090
:1009F0003B30BD003D08C000C82D25304606031918
:100A0000022D032D0F2D4608BD00450884003D082A
:100A1000831380000130BD003D08C507C82DC1010A
:100A20000130BA07FF303A0784000A128A110A24FB
:100A30000A128A11C600BD00BE013E08003A031921
:100A4000222DC82D3D08003A0319DA2D643A031906
:100A50002D2D0D3A03192D2DC82D40088400831328
:100A60000008C300840A0008C4000230BD003D082D
:100A7000C007C41F3C2D3D2D462D0330BD003D0851
:100A8000C104C309C409C30A0319C40AC601C60ABA
:100A90004608BD003D07013E84000A128A110A245F
:100AA0000A128A11BE000A128A110A240A128A1135
:100AB000BF003F084402031D5F2D3E084302031898
:100AC000622D632D642D6E2D0130BD003D08C607DB
:100AD00005304606031D6D2D6E2D482D4108033946
:100AE0000319732D742D7F2D2D30BD004508840012
:100AF0003D08831380000130BD003D08C50746084E
:100B0000BD003D08C200BF2D0A30B4000030B50062
:100B10004208BD003D07013E84000A128A110A24E2
:100B20000A128A11AC000A128A110A240A128A11C6
:100B3000AD004408AF004308AE000A128A114B27EB
:100B40000A128A11831203132D08B7002C08B6006D
:100B50000A128A1191270A128A1183120313340888
:100B6000303EBE003E08C6004608BD004508840071
:100B70003D08831380000130BD003D08C507FF30EC
:100B8000BD003D08C207420A031DC72DC82D842D94
:100B90000130BA07FF303A0784000A128A110A248A
:100BA0000A128A11BD003D08C6004608031DD92D52
:100BB000DA2DFD2C45088400831380010800831280
:100BC0000313B801B31FE52DE62DED2DB209B309CE
:100BD000B20A0319B30AB801B80AB51FF02DF12DF6
:100BE000FA2DB409B509B40A0319B50A0130B600E3
:100BF0003608B806B901BA01320833040319012EC8
:100C0000022E392EB701B70A102E01300310B20D93
:100C1000B30DFF3E031D062E0130B6003608B707A0
:100C2000B31F132E142E052E01300310B90DBA0D6B
:100C3000FF3E031D152E33083502031D212E3208F9
:100C40003402031C242E252E2C2E3208B402330825
:100C5000031CB503B502391401300310B30CB20CF8
:100C6000FF3E031D2D2E0130B702031D382E392EF5
:100C7000142E380803193D2E3E2E432EB909BA0909
:100C8000B90A0319BA0A3A08B3003908B2000800D1
:100C900083120313A101F71F4E2E4F2E562EF60975
:100CA000F709F60A0319F70AA101A10AF91F592E3B
:100CB0005A2E632EF809F909F80A0319F90A0130C6
:100CC000FA007A08A106A201A301760877040319A5
:100CD0006A2E6B2EA22EA001A00A792E01300310DD
:100CE000F60DF70DFF3E031D6F2E0130FA007A0856
:100CF000A007F71F7C2E7D2E6E2E01300310A20D53
:100D0000A30DFF3E031D7E2E77087902031D8A2E58
:100D100076087802031C8D2E8E2E952E7608F8020A
:100D20007708031CF903F902221401300310F70CB1
:100D3000F60CFF3E031D962E0130A002031DA12ECE
:100D4000A22E7D2E21080319A62EA72EAC2EA209B5
:100D5000A309A20A0319A30A2308F7002208F60030
:100D6000080083120313CB01CC01BD01BE01143076
:100D700083120313B2000030B3003E08AD003D08FB
:100D8000AC00EC30AE00FF30AF000A128A157827B5
:100D90000A128A11831203132D08B5002C08B4001F
:100DA0000A128A11DF250A128A11831203133208EC
:100DB000143EBB00BC013B08CB003C08CC001A3001
:100DC00083120313BC00F730BB00BB0BE52EBC0B3A
:100DD000E52EEA2E013083120313BD070318BE0A65
:100DE0000030BE073E08803AFF0080307F02031DBE
:100DF000FB2E15303D02031CFE2EFF2EB72E0800E1
:100E000083120313CB01CC01A401A5011430F60019
:100E10000030F700831203132508F1002408F000C6
:100E2000EC30F200FF30F3000A128A1553270A1241
:100E30008A117108F9007008F8000A128A11482610
:100E40000A128A117608143EFB00FC017B0883120B
:100E50000313CB007C08CC001A30FC00F830FB00F8
:100E6000FB0B302FFC0B302F0000013083120313DB
:100E7000A4070318A50A0030A5072508803AFF003B
:100E800080307F02031D462F15302402031C492F9A
:100E90004A2F062F080083120313B201B3012C0856
:100EA0002D040319542F552F8C2FB101B10A632F34
:100EB00001300310AC0DAD0DFF3E031D592F013065
:100EC000B0003008B107AD1F662F672F582F0130D3
:100ED0000310B20DB30DFF3E031D682F2D082F0226
:100EE000031D742F2C082E02031C772F782F7F2FC1
:100EF0002C08AE022D08031CAF03AF0232140130E0
:100F00000310AD0CAC0CFF3E031D802F0130B1026D
:100F1000031D8B2F8C2F672F3308AD003208AC00D8
:100F2000080083120313340835040319982F992FEE
:100F3000C82FB901B90AA72F01300310B40DB50DA0
:100F4000FF3E031D9D2F0130B8003808B907B51FBB
:100F5000AA2FAB2F9C2F35083702031DB12F340861
:100F60003602031CB42FB52FBB2F3408B602350848
:100F7000031CB703B70201300310B50CB40CFF3EDD
:100F8000031DBC2F0130B902031DC72FC82FAB2F83
:100F90003708B5003608B40008001F308316031761
:100FA000880089011F308316031385008030870075
:100FB00088010F30860083120313850187018801A1
:100FC0008601831603130F088F3960388F000F14C2
:100FD00081131614961416159615151495141515D7
:100FE00095158B178B168B150B10080083120313A6
:100FF000AC000C1EFC2FFD2FF92F2C0899000800C7
:101DBE0064008001840A0406031900340406E02E30
:101DCE00831203138C100330920412158C1CF02E08
:101DDE00F12EED2E8C1008000D300A128A11F62706
:101DEE000A128A150A300A128A11F6270A128A1561
:101DFE00080083160313811281110108F839043883
:101E0E008100FD3083120313810008000730831216
:101E1E0003178D00831603178C130C1483120317EC
:101E2E000C0C83120313031C07110318071508006B
:101E3E00831203139F131F17831603131F129F1270
:101E4E009F13C330831203139F051F142030831278
:101E5E000313AC00AC0B312F0000080083160313E4
:101E6E0018121815831603178711193083160313CA
:101E7E0099009A01831203139817831603131813EC
:101E8E009816831203131816831603138C168312D7
:101E9E0003138C120B170800F401F501701C582F58
:101EAE00592F5F2F7208F4070318F50A7308F50708
:101EBE0001300310F20DF30DFF3E031D602F0130B4
:101ECE000310F10CF00CFF3E031D672F7008710418
:101EDE00031D722F732F552F7508F1007408F00033
:101EEE00080083120313B001B1012C1C7F2F802F29
:101EFE00862F2E08B0070318B10A2F08B10701303C
:101F0E000310AE0DAF0DFF3E031D872F01300310E2
:101F1E00AD0CAC0CFF3E031D8E2F2C082D04031DA3
:101F2E00992F9A2F7C2F3108AD003008AC00080095
:101F3E00B62F2E08FF002D0884000A128A110024E5
:101F4E000A128A150A128A11F6270A128A15013008
:101F5E0083120313AD070318AE0A0030AE078312C7
:101F6E0003132E08FF002D0884000A128A11002484
:101F7E000A128A15003A031DC52FC62FA02F08007E
:101F8E00831203131E08F0007008F2008316031765
:101F9E008C18D22FD32FCD2F8630831203178D009E
:101FAE0072088C00831603178C130C158B13553087
:101FBE008D00AA308D008C140C110D30F100FB3009
:101FCE00F000F00BE82FF10BE82FED2F8630831287
:101FDE0003178D00831603178C130C14831203172B
:101FEE000C0C83120313031C0711031807158B1710
:021FFE000800D9
:08400000FF3FFF3FFF3FFF3FC0
:04400E00D420FF3F7C
:00000001FF
