:020000000029D5
:10000800A000030EA1000B1C0A280F20210E83005C
:10001800A00E200E090006181628870A861C12282A
:100028000B100A2886180A288703061C19280B10A3
:020038000800BE
:100200000921182127211F21031383128701860149
:1002100008290317831688018901031383168701B0
:10022000860103138316F030870003308600080030
:10023000031383160F178F160F120F1408000313E2
:1002400083128B010B178B150B148B1708000313EC
:10025000831616149614031383168113151495141C
:02026000080094
:04400E00D420FF3F7C
:00000001FF
