:060000000A128A11FB2F19
:100EEC008316031789018316031387018801831264
:100EFC00031387018801831603130F088F39603899
:100F0C008F000F14080083160313050801388500A1
:100F1C0083160317080801388800831203139F13E4
:100F2C001F17831603139F121F129F138312031391
:100F3C009F121F129F111F111F142130F000F00B74
:100F4C00A52F08000A128A1176270A128A110A1292
:100F5C008A1189270A128A117308031DB62FB72F1D
:100F6C00CD2F831203139F121F129F111F11F30118
:100F7C00F30A0D30F200FB30F100F10BC32FF20B32
:100F8C00C32FC82F831203131E088800E62F730388
:100F9C00031DD12FD22FE62F831203139F121F1282
:100FAC009F111F15F3010D30F200FB30F100F10B16
:100FBC00DD2FF20BDD2FE22F831203131E088700A7
:100FCC00831203139F149F18EC2FED2FE92F0C1392
:100FDC000D30F200FB30F100F10BF22FF20BF22F7F
:100FEC00F72FB22F0A128A110028F30183010A127B
:040FFC008A11A82F7F
:08400000FF3FFF3FFF3FFF3FC0
:04400E00D420FF3F7C
:00000001FF
