:060000000A128A110C280F
:10000800FE00030EF2000A08F3000A128A116C2996
:100018000A128A110F280A128A1136220A128A1124
:10002800BA000A128A1137220A128A11BB00B001DB
:10003800B101B201B301B401B501B601B701B8010C
:10004800B901F701F801F90183010A128A112C2874
:100058000A128A1107220A128A110A128A111F2209
:100068000A128A110A128A11C9210A128A118312E4
:1000780003133808031D412842284C2801300A126E
:100088008A11E8210A128A1183120313B801B80AE7
:1000980031303906031D512852283B28B601B701D3
:1000A800AE01AF01143083120313A4000030A50081
:1000B8002F08A1002E08A000EC30A200FF30A300FA
:1000C8000A128A11A2210A128A1183120313210823
:1000D800A7002008A6000A128A11B8200A128A115D
:1000E800831203132408143EAC00AD012C08B6009B
:1000F8002D08B7001A3083120313AD00F730AC0097
:10010800AC0B8428AD0B8428892801308312031393
:10011800AE070318AF0A0030AF072F08803AFF0078
:1001280080307F02031D9A2815302E02031C9D285B
:100138009E28562830300A128A11E8210A128A119C
:100148000D300A128A112C220A128A110A300A1258
:100158008A112C220A128A1183120313B801B901D9
:100168003B280A128A110C2883120313A901A51F20
:10017800BE28BF28C628A409A509A40A0319A50AE8
:10018800A901A90AA71FC928CA28D328A609A70907
:10019800A60A0319A70A0130F6007608A906AA01DB
:1001A800AB01240825040319DA28DB281229A80141
:1001B800A80AE92801300310A40DA50DFF3E031D70
:1001C800DF280130F6007608A807A51FEC28ED28DF
:1001D800DE2801300310AA0DAB0DFF3E031DEE28EB
:1001E80025082702031DFA2824082602031CFD28D7
:1001F800FE2805292408A6022508031CA703A70230
:100208002A1401300310A50CA40CFF3E031D062977
:100218000130A802031D11291229ED282908031904
:10022800162917291C29AA09AB09AA0A0319AB0A16
:100238002B08A5002A08A400080001308A00040839
:10024800840A8207003431342E3420345034613427
:1002580072347034613464346534613472342034F7
:1002680075346E3461342034763465347A340D3420
:100278000A3432342E3420345034613472347034B9
:1002880061346434653461347234203464346F34D6
:1002980073342034763465346334653473340D3400
:1002A8000A3400344834653420347034613472348C
:1002B8007034613464346534613464346F342034A8
:1002C80075346E3461342034763465347A340034CD
:1002D8000B1D6F2970299029FD30831203138100AB
:1002E8000130F0007008F9077908F000F101710891
:1002F8003702031D812970083602031884298529CD
:100308008729881188298815790A031D8C298D2940
:100318008E29F9010B119B29831203138C1E952931
:1003280096299B291A08F0007008B9008C127308E6
:100338008A00720E8300FE0E7E0E0900F401F5019C
:1003480083120313201CA929AA29B0292208F4071B
:100358000318F50A2308F50701300310A20DA30DB1
:10036800FF3E031DB12901300310A10CA00CFF3E74
:10037800031DB82920082104031DC329C429A42961
:100388007508A1007408A00008008316031318124A
:10039800181583160317871119308316031399004C
:1003A8009A018312031398178316031318139816C8
:1003B800831203131816831603138C168312031360
:1003C8008C168B170B170800F600FA29760884009C
:1003D8000A128A1121210A128A110A128A112C2260
:1003E8000A128A110130F5007508F60776088400AC
:1003F8000A128A1121210A128A11003A031D052ABC
:10040800062AEA290800831603178801890183163A
:100418000313850188018601831203138601850170
:100428008801831603130F088F3960388F000F1067
:100438008B178B160800831603138112811101088C
:10044800F83904388100FD30831203138100080055
:10045800F400831203130C1E322A332A2D2A74083F
:0804680099000800FF34003484
:08400000FF3FFF3FFF3FFF3FC0
:04400E00D420FF3F7C
:00000001FF
