:060000000A128A110C280F
:10000800FE00030EF1000A08F2000A128A118D2977
:100018000A128A110F28FA0183120313B701B801D3
:10002800B901BA0183010A128A111A280A128A111F
:10003800CF210A128A110A128A11E8210A128A119A
:100048000A128A11FB210A128A110A128A1108223D
:100058000A128A110A128A11B0210A128A1183120D
:1000680003133908031D39283A286B281E08B400E1
:10007800B5013408A8003508A9000030AA00AB0073
:10008800FF30AC000030AD000A30AE000030AF00E9
:100098008730B0000030B1000A128A112F210A12ED
:1000A8008A1183120313280895009F121F129F11AB
:1000B8001F11B901B90A413083120313B500ED309D
:1000C800B400B40B6528B50B65286A28BB2839032A
:1000D800031D6F28702898281E08B400B50134083D
:1000E800A8003508A9000030AA00AB00FF30AC001A
:1000F8000030AD000A30AE000030AF008730B000ED
:100108000030B1000A128A112F210A128A118312B3
:10011800031328089B009F121F129F111F150230FE
:10012800B4003408B9005F2802303906031D9D2841
:100138009E28BB289F121F129F151F111E08B8006A
:10014800831603131E0883120313B7003808B5007B
:100158003708B4000310B50CB40C0310B50CB40C7C
:100168003408B6003608BA000C13B9015F288312A8
:1001780003139F149F18C128C228BE2833280A12C7
:100188008A110C2883120313A501A11FCC28CD289E
:10019800D428A009A109A00A0319A10AA501A50A42
:1001A800A31FD728D828E128A209A309A20A03195E
:1001B800A30A0130F9007908A506A601A7012008BD
:1001C80021040319E828E9282029A401A40AF7280A
:1001D80001300310A00DA10DFF3E031DED280130D5
:1001E800F9007908A407A11FFA28FB28EC28013098
:1001F8000310A60DA70DFF3E031DFC2821082302AE
:10020800031D082920082202031C0B290C29132985
:100218002008A2022108031CA303A302261401300C
:100228000310A10CA00CFF3E031D14290130A402E9
:10023800031D1F292029FB282508031924292529FE
:100248002A29A609A709A60A0319A70A2708A100A7
:100258002608A0000800831203132A082C02A00015
:100268002B08031C2B0A2D02A1002A082802F300E0
:100278002B08031C2B0A2902F4002E083002F50073
:100288002F08031C2F0A3102F6000A128A1168216E
:100298000A128A11740883120313A3007308A200B8
:1002A8000A128A11C6200A128A11831203132E0811
:1002B8002007B2002F0803182F0A2107B3003308BC
:1002C800A9003208A8000800F701F801731C6D297D
:1002D8006E2974297508F7070318F80A7608F807CD
:1002E80001300310F50DF60DFF3E031D7529013091
:1002F8000310F40CF30CFF3E031D7C2973087404EF
:10030800031D872988296A297808F4007708F300EB
:1003180008000B1D90299129A929FD308312031388
:1003280081000130F0007008FA077A083A020318D1
:100338009E299F29A1290710A22907147A0A031DBB
:10034800A629A729A829FA010B1172088A00710E9B
:100358008300FE0E7E0E090083160313071587140B
:10036800F93092003F308312031397051708F039CC
:100378000C3897001D08F0390C389D001E30950088
:100388001E309B00CF3097051D129D128316031354
:1003980007118710080007308316031788008901A2
:1003A8000730831603138500870183120313850121
:1003B8008701831603130F088F3960388F000F14D5
:1003C8008B160C178B170800831203139F131F1724
:1003D800831603131F129F129F13C3308312031334
:1003E8009F051F142130F300F30BF829080083162A
:1003F8000313811281110108F83903388100FD3097
:100408008312031381000800831203138C10033036
:10041800920412158C1C112A122A0E2A8C1008001C
:08400000FF3FFF3FFF3FFF3FC0
:04400E00D420FF3F7C
:00000001FF
