:100000000A128A11F42F00308A000408840A820739
:100010000034BF348634DB34CF34E634ED34FD3481
:100020008734FF34EF34F734FC34B934DE34F93438
:02003000F134A9
:1002BC0083160317890183160313870188018601AE
:1002CC0083120313870188018601831603130F0819
:1002DC008F3960388F000F1408008316031305083C
:1002EC00013885008316031708080138880083122B
:1002FC0003139F131F17831603139F121F129F13B1
:10030C00831203139F121F129F111F111F142130F0
:10031C00F000F00B8F290800F800F401F5017008CB
:10032C00F200F3017208F6007308F700781C9F299D
:10033C00A029A6297608F4070318F50A7708F5070B
:10034C0001300310F60DF70DFF3E031DA729031016
:10035C00F80C7808031DB329B4299C297508F10001
:10036C007408F0000800780879040319BE29BF2925
:10037C00EE29FD01FD0ACD2901300310F80DF90D10
:10038C00FF3E031DC3290130FC007C08FD07F91F4B
:10039C00D029D129C22979087B02031DD7297808D5
:1003AC007A02031CDA29DB29E1297808FA02790898
:1003BC00031CFB03FB0201300310F90CF80CFF3E8D
:1003CC00031DE2290130FD02031DED29EE29D1297F
:1003DC007B08F9007A08F8000800F501F6017008AE
:1003EC0071040319FA29FB29322AF701F70A092AA1
:1003FC0001300310F00DF10DFF3E031DFF290130FC
:10040C00F4007408F707F11F0C2A0D2AFE2901309D
:10041C000310F50DF60DFF3E031D0E2A7108730235
:10042C00031D1A2A70087202031C1D2A1E2A252A73
:10043C007008F2027108031CF303F3027514013007
:10044C000310F10CF00CFF3E031D262A0130F702BD
:10045C00031D312A322A0D2A7608F1007508F000A6
:10046C0008000310831203133C0D3D0DBE003E0823
:10047C00C4004408031D432A442A4D2A0030BD0001
:10048C000030BC000030BB000030BA00B22A3A0881
:10049C00BE003B08BF003C08C0003D08C1001F3037
:1004AC000310C10CC00CBF0CBE0CFF3E031D562A22
:1004BC003E08C2004208C300BC17FF30BA05FF302B
:1004CC00BB05FF30BC050030BD059630C402C41F0F
:1004DC00702A712A8B2A4408803A973E0318772A8F
:1004EC00782A792A442A01300310BD0CBC0CBB0CB1
:1004FC00BA0CFF3E031D7A2A0130BE003E08C40729
:10050C00031D892A8A2A792AA22A20304402031C34
:10051C00902A912A9D2A442A0130BE000310BA0D5C
:10052C00BB0DBC0DBD0DBE0B942A0130C40244089A
:10053C00031DA12AA22A922A43080319A62AA72A34
:10054C00B22ABA09BB09BC09BD09BA0A0319BB0A0C
:10055C000319BC0A0319BD0A0800F800780803192E
:10056C00B82AB92ACD2AF31FBC2ABD2ACD2A700974
:10057C00FA007109FB007209FC007309FD00FA0A0C
:10058C000319FB0A0319FC0A0319FD0AD52A73087F
:10059C00FD007208FC007108FB007008FA0073087B
:1005AC00720471047004031DDC2ADD2AE62A003073
:1005BC00F3000030F2000030F1000030F0006C2B42
:1005CC009630F4007408F900F82A0130F40074082D
:1005DC00F90701300310FD0CFC0CFB0CFA0CFF3E70
:1005EC00031DF02AFE307D05031DFD2AFE2AEB2A91
:1005FC001A2B0130F4007408F9070130FA070030A7
:10060C0003180130FB07003003180130FC070030E1
:10061C0003180130FD0701300310FD0CFC0CFB0C22
:10062C00FA0CFF3E031D122BFF307D05031D1F2B03
:10063C00202BFF2A2C2B0130F9020130F40003107F
:10064C00FA0DFB0DFC0DFD0DF40B252BFC1B2F2BBC
:10065C00302B362B023079020318352B362B212BFD
:10066C007918392B3A2B422BFF30FA05FF30FB055A
:10067C007F30FC05FF30FD050310F90C7908F40000
:10068C00F501F601F70118300310F40DF50DF60D18
:10069C00F70DFF3E031D4A2B7408FA047508FB0482
:1006AC007608FC047708FD04780803195E2B5F2B91
:1006BC00642BF31F622B632B642BFD177D08F30057
:1006CC007C08F2007B08F1007A08F00008000A129E
:1006DC008A115E210A128A110A128A1173210A12D6
:1006EC008A110A30F8000030F9008312031348080D
:1006FC00FB004708FA000A128A11B9210A128A1162
:10070C00780883120313C5004508CB000A30F800A3
:10071C000030F9000A30F0000030F1004808F30016
:10072C004708F2000A128A11F3210A128A11710881
:10073C00FB007008FA000A128A11B9210A128A11F8
:10074C00780883120313C5004508CA000A30F80064
:10075C000030F9006430F0000030F1004808F3007C
:10076C004708F2000A128A11F3210A128A11710841
:10077C00FB007008FA000A128A11B9210A128A11B8
:10078C00780883120313C5004508C9004C08031DE3
:10079C00D02BD12B232C9F121F129F111F11CC0178
:1007AC00CC0A0D3083120313C600FB30C500C50BF9
:1007BC00DD2BC60BDD2B831203131E08C500C601EF
:1007CC004508C7004608C8004708F0004808F10073
:1007DC00F201F30100300A128A11B3220A128A11B3
:1007EC00730883120313A7007208A6007108A500F2
:1007FC007008A4003F30A300FB30A2004330A100DE
:10080C009630A0000A128A1193240A128A118312BC
:10081C0003132308BD002208BC002108BB002008DC
:10082C00BA000A128A1137220A128A118312031390
:10083C003B08C8003A08C7003B2C4C03031D272C6F
:10084C00282C3B2C9F121F129F111F15CC010D3011
:10085C0083120313C600FB30C500C50B332CC60B2B
:10086C00332C831203131E0887009F149F183F2CF0
:10087C00402C3C2C0D3083120313C600FB30C500FA
:10088C00C50B462CC60B462C013083120313860075
:10089C004B08013E84000A128A1103200A128A11A5
:1008AC0088000D3083120313C600FB30C500C50B46
:1008BC005D2CC60B5D2C02308312031386004A0894
:1008CC00013E84000A128A1103200A128A11880040
:1008DC000D3083120313C600FB30C500C50B742CFE
:1008EC00C60B742C04308312031386004908013E96
:1008FC0084000A128A1103200A128A1188000D3012
:10090C0083120313C600FB30C500C50B8B2CC60B22
:10091C008B2C772B0A128A110028831203132308BD
:10092C008039A8002808AD002308A8002807A900D2
:10093C002908B300A21FA32CA42CA52C3314330814
:10094C000319A92CAA2CB92C330A031DAE2CAF2CDD
:10095C00B72C0030A3000030A2000030A100003002
:10096C00A000A217C12C0030A3000030A200003060
:10097C00A1000030A00027088039A8002808AD0687
:10098C002708A8002807A9002908B200A61FCF2C09
:10099C00D02CD12C321432080319D52CD62CE52CA2
:1009AC00320A031DDA2CDB2CE32C0030A7000030BC
:1009BC00A6000030A5000030A400A617ED2C0030D6
:1009CC00A7000030A6000030A5000030A4003208BB
:1009DC000319F12CF22CF72C3308031DF62CF72CF1
:1009EC00002D0030A3000030A2000030A100003028
:1009FC00A000F32F2008A8002808F00026080A12EF
:100A0C008A1192210A128A11710883120313B900F8
:100A1C007008B8003808A800A901AA01AB012B087E
:100A2C00B1002A08B0002908AF002808AE00390828
:100A3C00A800A901AA01AB012B08B7002A08B6002F
:100A4C002908B5002808B4002108A8002808F000DF
:100A5C0025080A128A1192210A128A11710883122E
:100A6C000313B9007008B8003808A800A901AA013E
:100A7C00AB012808AE07290803110318013E03191E
:100A8C00482DAF072A0803110318013E03194F2DF7
:100A9C00B0072B0803110318013E0319562DB1079B
:100AAC003908A800A901AA01AB012808B407290834
:100ABC0003110318013E0319642DB5072A0803110D
:100ACC000318013E03196B2DB6072B0803110318ED
:100ADC00013E0319722DB7072208A8002808F00060
:100AEC0024080A128A1192210A128A11710883129F
:100AFC000313B9007008B8003808A800A901AA01AE
:100B0C00AB012808AE07290803110318013E03198D
:100B1C00902DAF072A0803110318013E0319972DD6
:100B2C00B0072B0803110318013E03199E2DB107C2
:100B3C003908A800A901AA01AB012808B4072908A3
:100B4C0003110318013E0319AC2DB5072A08031134
:100B5C000318013E0319B32DB6072B080311031814
:100B6C00013E0319BA2DB7070830A8000310AE0DCB
:100B7C00AF0DB00DB10DA80BBC2D2108A800280895
:100B8C00F00024080A128A1192210A128A117108A3
:100B9C0083120313B9007008B8003808A80039088C
:100BAC00A900AA01AB012808AE07290803110318F4
:100BBC00013E0319E22DAF072A0803110318013E69
:100BCC000319E92DB0072B0803110318013E031973
:100BDC00F02DB1072008A8002808F00025080A12FB
:100BEC008A1192210A128A11710883120313B90017
:100BFC007008B8003808A8003908A900AA01AB0190
:100C0C002808AE07290803110318013E03190F2EFB
:100C1C00AF072A0803110318013E0319162EB0075B
:100C2C002B0803110318013E03191D2EB1070830C0
:100C3C00A8000310AE0DAF0DB00DB10DA80B1F2EFB
:100C4C002008A8002808F00024080A128A11922112
:100C5C000A128A11710883120313B9007008B800C4
:100C6C003808A8003908A900AA01AB012808AE076A
:100C7C00290803110318013E0319452EAF072A0852
:100C8C0003110318013E03194C2EB0072B08031156
:100C9C000318013E0319532EB1072108A800280898
:100CAC00F00026080A128A1192210A128A11710880
:100CBC0083120313B9007008B8003808A80039086B
:100CCC00A900AA01AB012808B407290803110318CD
:100CDC00013E0319722EB5072A0803110318013EB1
:100CEC000319792EB6072B0803110318013E0319BB
:100CFC00802EB7072208A8002808F00025080A1241
:100D0C008A1192210A128A11710883120313B900F5
:100D1C007008B8003808A8003908A900AA01AB016E
:100D2C002808B407290803110318013E03199F2E44
:100D3C00B5072A0803110318013E0319A62EB6079E
:100D4C002B0803110318013E0319AD2EB707220817
:100D5C00A8002808F00026080A128A1192210A120B
:100D6C008A11710883120313B9007008B80038088F
:100D7C00A8003908A900AA01AB0108300310A80D7E
:100D8C00A90DAA0DAB0DFF3E031DC42E2808B407F8
:100D9C00290803110318013E0319D52EB5072A089B
:100DAC0003110318013E0319DC2EB6072B0803119F
:100DBC000318013E0319E32EB7072E08A8002F08CD
:100DCC00A9003008AA003108AB0018300310AB0C96
:100DDC00AA0CA90CA80CFF3E031DEC2E2808B40786
:100DEC00290803110318013E0319FD2EB5072A0823
:100DFC0003110318013E0319042FB6072B08031126
:100E0C000318013E03190B2FB7070830A800031075
:100E1C00AE0DAF0DB00DB10DA80B0D2F3308320771
:100E2C00A800A901A90D2808823EB80029080318BA
:100E3C00013EFF3EB9003F2F0130A8000310B40D56
:100E4C00B50DB60DB70DA80B242FB11F2E2F2F2FBC
:100E5C00302F34140130A8000310AE0DAF0DB00DBF
:100E6C00B10DA80B322FFF30B8070318B90AFF30A9
:100E7C00B907B61F422F432F222FB201B11F472FA4
:100E8C00482F642FFF302E05A800FF302F05A90036
:100E9C00FF303005AA007F303105AB002B082A0447
:100EAC002904280403195B2F5C2F5F2FB201B20AAF
:100EBC00642F341C622F632F642F5C2F32080319AC
:100ECC00682F692F9A2F0130B407003003180130B6
:100EDC00B507003003180130B60700300318013095
:100EEC00B707371C7A2F7B2F9A2F3408A8003508A8
:100EFC00A9003608AA003708AB000130AC002B0D56
:100F0C00AB0CAA0CA90CA80CAC0B852F2B08B700AA
:100F1C002A08B6002908B5002808B4000130B80723
:100F2C000318B90A0030B9073908803AFF0080303D
:100F3C007F02031DA32FFF303802031CA62FA72FFF
:100F4C00B22F7F3083120313B7008030B60000300D
:100F5C00B5000030B400E72F831203133908803A30
:100F6C00FF0080307F02031DBD2F013038020318B3
:100F7C00C02FC12FCD2F003083120313B7000030C8
:100F8C00B6000030B5000030B400AD01E72F83127D
:100F9C0003133808A8002808B300FF30B405FF304D
:100FAC00B5057F30B6050030B705331CDE2FDF2FBB
:100FBC00E02FB6173308A8000310280CA900290845
:100FCC00B7002D08A8002808B7043708A300360876
:100FDC00A2003508A1003408A000080083120313F6
:100FEC00C701C801C901CA01CB01CC0183010A1296
:040FFC008A116D2BBE
:08400000FF3FFF3FFF3FFF3FC0
:04400E00D420FF3F7C
:00000001FF
