:02000000002AD4
:10000800A000030EA100031383120C1C0E287022FB
:100018000C10A422031383120B1D1F2898226B2295
:100028002B1C17281B282B1407170B111F282B1004
:1000380007130B111F280B1C3628281C24282D28D1
:100048000130061DA800061D2728772285220B10DF
:1000580036280030061DA800061D30287E2285227D
:0E0068000B103628210E8300A00E200E09007A
:100200008A010A140F3982073F3406345B344F34B5
:1002100066346D347D3407347F346F3477347C3406
:1002200039345E34793471348A010A140F39820703
:1002300020342334263429342E34333439344134B1
:100240004C345B34713496348034DF34FF340C34F6
:100250008A010A140F3982073034323437343B3480
:10026000403445344B3453345C3467347634893409
:08027000A434CC34043408343A
:10040000272234224422532260223B2203138312E8
:100410008601850187018801A201A401A501A60129
:10042000A701A801A301AC01AB01B201B301281CD3
:100430001A2A202A07168712CE22D922D222172A58
:10044000851707128716F322F722D222172A0317DD
:100450008316880189010313831600308500880004
:100460008700073086000800031383160F178F16C6
:100470000F120F140800031383128B010B178B1636
:100480008B150C148B1708000313831681130113AB
:100490008112811101108114011503138312FF30A1
:1004A0008100080008000313831210131014901029
:1004B0001016901290117022031383120C10080072
:1004C00003138316161496141615031383161514A6
:1004D00095141515080003138312230881000800E2
:1004E0000313831295308E00F5308F00080003133C
:1004F00083160110811401156B2208000313831663
:100500000110811401116B22080003138312061CD1
:100510009022061C892A861C9422861C8D2A08009B
:100520001130A307B20A08001130A302B203080079
:100530003318A02A0808FE3C03193314880A08005F
:100540008803031933100800A20A2208013C031D86
:10055000AF2A87012E080021850007140800220811
:10056000023C031DB92A87012F080021850087144A
:1005700008002208033C031DC32A8701300800211C
:100580008500071508002208043C031D08008701A8
:100590003108002185008715A201080032081421C6
:1005A000AC0008002408AE002508AF002608B00003
:1005B0000800A401A601A501A6012C08AC00A60A0A
:1005C0006430AC020318DF2AA6036430AC07A5012F
:1005D0002C08A400A50A0A30A4020318EA2AA503DD
:1005E0000A30A407080032082821AD000800A40141
:1005F000A601A501A6012D08AD00A60A6430AD0232
:100600000318FD2AA6036430AD07A5012D08A40038
:10061000A50A0A30A4020318082BA5030A30A40770
:020620000800D0
:04400E00D420FF3F7C
:00000001FF
