:02000000002AD4
:10000800A000030EA1000B1D0A286C220B1C0D2852
:0C0018007322210E8300A00E200E0900B0
:100200008A010A140F3982073F3406345B344F34B5
:0E02100066346D347D3407347F346F347734B8
:1004000045223822552263224C220313831286018F
:1004100087018501A201A501A301A401A60123086A
:100420000A128A1100210A128A11850024080A1270
:100430008A1100210A128A1188002208323C031D09
:100440000F2AA2010311A50A25080A3C03192A2A2A
:10045000A30A0F2AA3010311A501A40AA60A2608CC
:10046000063C0319342A0F2AA4010311A6010F2AFE
:10047000031783168801890103138316F030870060
:1004800085018801061486140800031383160F17CC
:100490008F160F120F140800031383128B010B1712
:1004A0008B160B158B158B170800031383168113FE
:1004B000811281110110811401150313831264301C
:1004C00081000B11080003138316161496140313EE
:1004D00083161514951408000313831264308100E9
:1004E0000B11A20A0800861C792A870A861C762A24
:1004F0000B10061C0D288703061C7C2A0B10080015
:04400E00D420FF3F7C
:00000001FF
