:060000000A128A110C280F
:10000800FE00030EF3000A08F4000A128A1182287F
:100018000A128A110F280A128A11FF200A128A115D
:10002800F80083010A128A114F28831203131E084D
:10003800F0007008F200831603178C18242825286E
:100048001F280A30831203178D0072088C0083164C
:1000580003178C130C158B1355308D00AA308D00A7
:100068008C140C110D30F100FB30F000F00B3A2825
:10007800F10B3A283F280A30831203178D008316A4
:1000880003178C130C14831203170C088312031321
:1000980088008B1708000A128A11B1200A128A11E7
:1000A8000A128A11D2200A128A110A128A11FC2015
:1000B8000A128A11831203139F149F186428652853
:1000C80061280D30F700FB30F600F60B6928F70BB6
:1000D80069286E28831203131E088700890179286E
:1000E80001308312031389006300780803197D28FF
:1000F8007E2874285E280A128A110C280B1C852871
:100108008628AA280B108312031306188C288D281A
:100118008E28F8018618912892289428F801F80A60
:100128000619972898289F28F801F80A0A128A11B0
:1001380019200A128A11831203138619A428A528E4
:10014800AA280A128A11ED200A128A1174088A0054
:10015800730E8300FE0E7E0E0900831603178901B5
:100168008316031387010F308600890188018312E3
:1001780003138701890186018801831603130F0879
:100188008F3960388F000F148113161496141615C2
:10019800961515149514151595150800831603134F
:1001A8000514831603170814831203139F131F17CC
:1001B800831603139F121F129F13831203139F1298
:1001C8001F129F111F111F142130F500F50BEA288B
:1001D80008000A30831203178D00831603178C1347
:1001E8000C14831203170C088312031388000800E9
:0801F8008B178B150800013480
:08400000FF3FFF3FFF3FFF3FC0
:04400E00D420FF3F7C
:00000001FF
