:02000000002AD4
:100200008A010A140F3982073F3406345B344F34B5
:1002100066346D347D3407347F346F3477347C3406
:0802200039345E347934713485
:100400001C2227220313831286018701A001071CE7
:100410000A2A0E22871C072A1522072AA00A20086A
:10042000002186000718122A0800A00320080021D6
:1004300086008718192A0800031783168801890186
:1004400003138316803086000330870008000313EF
:0C04500083160F178F120F160F140800F0
:04400E00D420FF3F7C
:00000001FF
