:060000000A128A110C280F
:10000800FE00030EF0000A08F1000A128A11822885
:100018000A128A110F280A128A119E200A128A11BE
:10002800F50083010A128A1119280A128A11672019
:100038000A128A110A128A114C200A128A110A120B
:100048008A119B200A128A11831203139F149F1886
:100058002E282F282B280D30F400FB30F300F30B4B
:100068003328F40B33283828831203131E0887001B
:10007800890143280130831203138900630075083E
:100088000319472848283E2828280A128A110C28CC
:100098008316031305148316031708148312031316
:1000A8009F131F17831603139F121F129F13831288
:1000B80003139F121F129F111F111F142130F200EA
:1000C800F20B6428080083160317890183160313AB
:1000D800870107308600890183120313870189018C
:1000E8008601831603130F088F3960388F000F14A9
:1000F8008113161496141514951408000B1C8528E2
:10010800862894280B108312031306188C288D2830
:100118008E28F5018618912892289428F501F50A69
:1001280071088A00700E8300FE0E7E0E09008B1780
:060138008B1508000134E4
:08400000FF3FFF3FFF3FFF3FC0
:04400E00D420FF3F7C
:00000001FF
