:060000000A128A11F72F1D
:100CB800831203138C100330920412158C1C652EBA
:100CC800662E622E8C100800831203139F131F17C1
:100CD800831603131F129F129F13C330831203132B
:100CE8009F051F142130F000F00B782E0800033008
:100CF80083160317880089010330831603138500C0
:100D080087018312031385018701831603130F08D4
:100D18008F3960388F000F140800831603130715E6
:100D28008714F93092003F30831203139705170890
:100D3800F0390C3897001D08F0390C389D001E302A
:100D480095001E309B00CF3097051D129D1283160B
:100D58000313071187100800F401F501701CB52E64
:100D6800B62EBC2E7208F4070318F50A7308F507A7
:100D780001300310F20DF30DFF3E031DBD2E0130AF
:100D88000310F10CF00CFF3E031DC42E7008710413
:100D9800031DCF2ED02EB22E7508F1007408F00076
:100DA80008008312031326082802F6002708031CEC
:100DB800270A2902F70026082402F0002708031C46
:100DC800270A2502F1002A082C02F2002B08031C2E
:100DD8002B0A2D02F3000A128A11B0260A128A1170
:100DE8007108F9007008F8000A128A110C270A1213
:100DF8008A11831203132A087607FB002B080318AD
:100E08002B0A7707FC007C08A5007B08A4000800D3
:100E180083120313A101F71F122F132F1A2FF6099C
:100E2800F709F60A0319F70AA101A10AF91F1D2FEC
:100E38001E2F272FF809F909F80A0319F90A0130B2
:100E4800FA007A08A106A201A3017608770403191B
:100E58002E2F2F2F662FA001A00A3D2F013003103F
:100E6800F60DF70DFF3E031D332F0130FA007A0807
:100E7800A007F71F402F412F322F01300310A20D7A
:100E8800A30DFF3E031D422F77087902031D4E2F45
:100E980076087802031C512F522F592F7608F80232
:100EA8007708031CF903F902221401300310F70C28
:100EB800F60CFF3E031D5A2F0130A002031D652FBB
:100EC800662F412F210803196A2F6B2F702FA20953
:100ED800A309A20A0319A30A2308F7002208F600A7
:100EE80008000A128A117B260A128A110A128A112C
:100EF80068260A128A110A128A115C260A128A11B5
:100F08000A128A1191260A128A11831203133008D1
:100F1800031D8F2F902FC12F1E08AE00AF012E0882
:100F2800A4002F08A5000030A600A700FF30A800E5
:100F38000030A9000A30AA000030AB008730AC00AE
:100F48000030AD000A128A11D5260A128A118312BE
:100F58000313240895009F121F129F111F11B0013F
:100F6800B00A413083120313AF00ED30AE00AE0B70
:100F7800BB2FAF0BBB2FC02FEB2F3003031DC52F8B
:100F8800C62FEB2F1E08AE00AF012E08A4002F08B5
:100F9800A5000030A600A700FF30A8000030A90077
:100FA8000A30AA000030AB008730AC000030AD003A
:100FB8000A128A11D5260A128A11831203132408E9
:100FC8009B009F121F129F111F15B001B52F83128E
:100FD80003139F149F18F12FF22FEE2F0C13892F54
:100FE8000A128A110028FD0183120313B001B1010E
:080FF80083010A128A11752F12
:08400000FF3FFF3FFF3FFF3FC0
:04400E00D420FF3F7C
:00000001FF
