:060000000A128A11FC2F18
:100F640083160317880189018316031387018312EB
:100F7400031387017030831603138F040F140800C2
:100F8400831203138C1003309204C73083160313A7
:100F940092008312031312158C1CD12FD22FCE2F43
:100FA4008C1008000A128A11B2270A128A110A1236
:100FB4008A11E7270A128A110A128A11C2270A1211
:100FC4008A11E32F0A128A110028831603130715C6
:100FD400C73092003F308312031397051708F03986
:100FE4000C3897004B309500CF30970583160313C8
:0C0FF4000711080083010A128A11D42F93
:08400000FF3FFF3FFF3FFF3FC0
:04400E00D430FF3F6C
:00000001FF
