:020000000029D5
:100200002E213C2103138312860187018501880179
:10021000071C0B291821871C0E291C21071D1129D9
:100220002021871D14292421071E08292821082997
:10023000860A071819290800860387181D2908004F
:10024000850A07192129080085038719252908002F
:10025000060805078800071A2B29080003178316CC
:100260008801890103138316F03086008500E03091
:1002700088000F3087000800031383160F178F12B2
:060280000F120F1408002C
:04400E00D420FF3F7C
:00000001FF
