:020000000029D5
:10000800A000030EA1000B1D0A2812200B1C0D28AE
:100018001920210E8300A00E200E0900031383125D
:10002800643081000B11A20A0800861C1F28870A69
:10003800861C1C280B10061C25288703061C222852
:040048000B10080091
:100200001F2113212F213D21262103138312860153
:1002100087018501A2012208323C031D0B29850AB2
:100220000311A2010B290317831688018901031307
:100230008316F03087008500061486140800031327
:1002400083160F178F160F120F1408000313831253
:100250008B010B178B160B158B158B1708000313CF
:10026000831681138112811101108114011503136A
:100270008312643081000B110800031383161614D7
:0C0280009614031383161514951408003F
:04400E00D420FF3F7C
:00000001FF
