:020000000029D5
:10000800A000030EA1000B1C0A283121210E830039
:06001800A00E200E0900FD
:1002000015210A21232128211C2103138312860191
:1002100087010929031783168801890103138316AF
:1002200000308700033086000800031383160F1781
:100230008F160F120F140800031383128B010B1774
:100240008B158B1708000313831681130113080005
:10025000031383161614961403138316151495149A
:100260000800861C3729870A861C34290B10061CB7
:0C0270003D298703061C3A290B100800EA
:04400E00D420FF3F7C
:00000001FF
