:060000000A128A110C280F
:10000800FE00030EF0000A08F1000A128A113128D6
:100018000A128A110F28F20183010A128A114D2847
:1000280083160317880189018316031307108312A7
:1000380003138701831603130F088F3960388F0065
:100048000F14811281110114811401150F308312CC
:10005800031381008B168B1708000B1D34283528D5
:1000680046280B110F308312031381007208031DF9
:100078003E283F28442801308700F201F20A46282A
:100088008701F20171088A00700E8300FE0E7E0E51
:1000980009000A128A1114200A128A1152280A1217
:0400A8008A110C2885
:08400000FF3FFF3FFF3FFF3FC0
:04400E00D420FF3F7C
:00000001FF
