:02000000002AD4
:10000800A000030EA1000B1D0B28622247220B1C27
:0E0018000E286822210E8300A00E200E090083
:100200008A010A140F3982073F3406345B344F34B5
:1002100066346D347D3407347F346F3477347C3406
:0802200039345E347934713485
:100400002122142231223E22282203138312860144
:10041000850187018801A201A301A401A501A6010C
:10042000A7015B225422112A031783168801890130
:100430000313831600308500870088000330860090
:100440000800031383160F178F160F120F140800DE
:10045000031383128B010B178B168B150B118B1744
:1004600008000313831681130113811281110110F7
:1004700081140115031383126222080003138316EB
:100480001614961403138316151495140800880186
:1004900023184E2A240885000814512A25088500AF
:1004A00088140130A306080022080F39A600220E86
:1004B0000F39A700080026080021A4002708002102
:1004C000A500080003138312E13081000B1108001E
:1004D000861C6E2A870A861C6B2A0B10061C742A3F
:0E04E0008703061C712A0B100708A2000800F3
:04400E00D420FF3F7C
:00000001FF
