:02000000002AD4
:10000800F000030EF1000B1D0C288D22F30A462286
:100018000B1C0F289322710E8300F00E700E09003E
:100200008A010A140A3982073F3406345B344F34BA
:0C02100066346D347D3407347F346F3465
:100400001322202230223D22272203138312860149
:10041000850187018801F201F301F401F501F6017C
:100420006F226822102A031783168801890103139B
:10043000831600308500870088000330860008009E
:10044000031383160F178F160F120F1408000313D0
:1004500083128B010B178B168B150B118B17080052
:10046000031383168113011381128111011081146A
:100470000115031383128D2208000313831616142B
:100480009614031383161514951408007308013C81
:10049000031D512A081488100811770800218500CF
:1004A00008007308023C031D5C2A08108814081118
:1004B00078080021850008007308033C031D08002C
:1004C000081088100815790800218500F30108003C
:1004D0007408F7007508F8007608F9000800F401C0
:1004E000F601F5010708F2006430F202F60A8318FB
:1004F000742AF603F2077D2208000A30F202F50A98
:1005000083187D2AF503F207862208000130F202E3
:10051000F40A0319862AF403080003138312B23085
:1005200081000B110800861C992A870A861C962ACE
:100530000B10061C9F2A8703061C9C2A0B10080020
:04400E00D420FF3F7C
:00000001FF
